:1000000099EF00F0EA6A060EE96EEF500EE00C0E72
:10001000016E006A002EFED7012EFBD7F70E006E90
:10002000002EFED700D0EF2EF2D7AAEF00F0949C5E
:100030008B9C080E016E00D00000018E0ED0019E38
:100040001032D8B08B8CD8A08B9C018C06D0019C30
:10005000012EF6D700D000008B8C010E006EE96AED
:10006000E92EFED7002EFBD7530EE96EE92EFED700
:1000700000D0000001BEE3D701BCE9D71200EACFEF
:100080000FF0E9CF0EF00838F0090A6E0A26E20FE9
:100090000B6E320F0D6E08500F0B0B260B260D2624
:1000A000E90F0C6E0C260C2607380F0B0C260D26BC
:1000B0000C360D360D1E0D3607500F0B0D260A3669
:1000C000070E096E0A0E0C060D26FDE30B060C2624
:1000D000FDE30A060B26FDE309060A26FDE3EA6AAC
:1000E000090EE96E070E0E140E9CE9260D0EE95C52
:1000F000D8B40E8CEF50006E08E10EBC06D00EB8DE
:1001000013D00EB602D0200E03D00E860E98300EFD
:100110000026EACF08F0E9CF07F000C010F087DF33
:1001200008C0EAFF07C0E9FFEE500EACDFD7B9EF19
:1001300000F0F86AD09EEA6AE96A949C8B8CC180D0
:10014000C182C184C196B70ECD6E040E056EFA0E43
:10015000066E58D7052EFBD7CE50CFCF03F0056ED5
:10016000CFCF06F0100EE96ECFCF08F005C007F034
:1001700086D70D0E106E5BDF0A0E106E58DFE5D7C6
:06018000000E016E0300F9
:020000040030CA
:0E00000000260E0E000181000FC00FE00F4021
:00000001FF
;PIC18F452
;CRC=29EE  CREATED="23-abr-13 08:36"
